:100000000C9487020C94AF020C94AF020C94AF02D4
:100010000C94AF020C94AF020C94AF020C94AF029C
:100020000C94AF020C94AF020C94AF020C94AF028C
:100030000C94AF020C94AF020C94AF020C94AF027C
:100040000C94DC070C94AF020C944C080C9426081A
:100050000C94AF020C94AF020C94AF020C94AF025C
:100060000C94AF020C94AF027C4F70656E456E65C8
:100070007267794D6F6E69746F722E6F7267007C54
:10008000656D6F6E4261736520560029002800205F
:1000900000200020007C000A002028686964646554
:1000A0006E292E00206279746573002C20446174DF
:1000B000612073697A653A2000205369676E617424
:1000C0007572653A20007C004E6F20646174612077
:1000D000626C6F636B20666F756E64202D204545E2
:1000E00050524F4D206170706561727320746F20A3
:1000F000626520666F726D617474656420746F2030
:100100004F454D205374616E646172642062757452
:1001100020756E757365642E007C007C000A0020DB
:1001200062797465732C206E6F7420666F726D61D6
:100130007474656420746F204F454D205374616E54
:10014000646172640053697A653A20007C000D0A8C
:100150007C436F6E6669672073617665640D0A7C07
:10016000007C536B6574636820726573746172748C
:10017000696E6720776974682064656661756C7460
:1001800020636F6E6669672E007C526573657474B8
:10019000696E672E2E2E00206900206700207000F7
:1001A00039003800340020620020720053657474F6
:1001B000696E67733A007C4E6F64652049443A204B
:1001C000007C47726F75703A20002064426D007C9D
:1001D000506F7765723A20003931354D487A0038D2
:1001E00036384D487A003433334D487A007C5246D5
:1001F0002042616E643A20007C526164696F3A204B
:10020000007C53657474696E6773007C0A7C417668
:1002100061696C61626C6520636F6D6D616E6473A2
:100220003A0A7C206C09092D206C69737420636F75
:100230006E66696720287465727365290A7C204C94
:1002400009092D206C69737420636F6E66696720DD
:1002500028766572626F7365290A7C207209092D00
:1002600020726573746F72652064656661756C7465
:1002700073202620726573746172740A7C2073097E
:10028000092D207361766520746F20454550524FCB
:100290004D0A7C207609092D2073686F77207665DA
:1002A0007273696F6E0A7C20563C6E3E09092D20E0
:1002B000766572626F7365206D6F64652C203120E6
:1002C0003D204F4E2C2030203D204F46460A7C20BA
:1002D000623C6E3E09092D2073657420722E662ED5
:1002E0002062616E64206E203D2034203E20343335
:1002F000334D487A2C2038203E203836384D487A05
:100300002C2039203E203931354D487A20286D6126
:1003100079207265717569726520686172647761B0
:100320007265206368616E6765290A7C20703C6E87
:100330006E3E09092D2073657420722E662E20747E
:1003400072616E736D697420706F7765722E206EA6
:100350006E202830202D20333129203D202D3138AA
:100360002064426D20746F202B31332064426D2E47
:100370002044656661756C743A20323520282B372D
:100380002064426D290A7C20673C6E6E6E3E092D0A
:10039000207365742047726F757020284F454D207B
:1003A00064656661756C74203D20323130290A7CA9
:1003B000206E3C6E6E3E09092D20736574206E6FB1
:1003C00064652049442028312E2E3630290A7C20AD
:1003D000543C6363633E5C6E092D207472616E73DE
:1003E0006D6974206120737472696E672E0A7C20B7
:1003F000773C6E3E09092D206E203D203020666F2F
:100400007220726164696F207472616E736D6974B9
:10041000204F46462C206E203D203120666F7220F2
:100420005472616E736D6974204F4E0A7C203F09CF
:10043000092D2073686F7720746869732061676184
:10044000696E0A7C007C526164696F20006F666689
:10045000006F6E007C566572626F7365206D6F640D
:100460006520007C656D6F6E506920434D205600FD
:100470002064426D007C703A20007C4E6F646520E1
:10048000007C47726F757020003931354D487A0015
:100490003836384D487A003433334D487A007C5230
:1004A000462042616E64203D200020620A00202D1B
:1004B0003E20004F4B0000000000240027002A00CF
:1004C00000000000250028002B000404040404049C
:1004D00004040202020202020303030303030102F3
:1004E00004081020408001020408102001020408C2
:1004F00010200000000800020100000304070000B3
:100500000000000000007C000A007C007E0811242E
:100510001FBECFEFD8E0DEBFCDBF22E0A4E5B1E043
:1005200001C01D92AB39B207E1F711E0A0E0B1E0E4
:10053000E8E1FDE102C005900D92A435B107D9F7BD
:1005400012E0C7E8D2E004C02197FE010E94840EA9
:10055000C638D107C9F70E9432090C948A0E0C9450
:10056000000090E0FC01EE50FB4F2491FC01E252B0
:10057000FB4F3491FC01E653FB4FE491EE23C9F0AD
:10058000222339F0233001F1A8F4213019F122306F
:1005900029F1F0E0EE0FFF1FE054FB4FA591B4915D
:1005A0008FB7F894EC91611126C030953E233C93AF
:1005B0008FBF08952730A9F02830C9F0243049F7BB
:1005C000809180008F7D03C0809180008F77809321
:1005D0008000DFCF84B58F7784BDDBCF84B58F7D7E
:1005E000FBCF8091B0008F778093B000D2CF809105
:1005F000B0008F7DF9CF3E2BDACFCF93DF9390E021
:10060000FC01E252FB4F249186539B4FFC018491E5
:100610008823D1F090E0880F991FFC01EA54FB4F2A
:10062000A591B491FC01E054FB4FC591D4916111A7
:100630000EC09FB7F8948C91E22FE0958E238C9397
:100640002881E223E8839FBFDF91CF9108958FB780
:10065000F894EC91E22BEC938FBFF6CF3FB7F89470
:100660008091E2019091E301A091E401B091E50154
:1006700026B5A89B05C02F3F19F00196A11DB11DFD
:100680003FBFBA2FA92F982F8827BC01CD01620F39
:10069000711D811D911D42E0660F771F881F991FF4
:1006A0004A95D1F708958F929F92AF92BF92CF92C1
:1006B000DF92EF92FF924B015C010E942E036B01CF
:1006C0007C010E942E036C197D098E099F09683EEA
:1006D000734081059105A8F321E0821A9108A108D1
:1006E000B10888EEC80E83E0D81EE11CF11C81140D
:1006F0009104A104B10429F7FF90EF90DF90CF900F
:10070000BF90AF909F908F900895AF92BF92CF927D
:10071000DF92EF92FF920F931F93CF93DF936C01C1
:100720007B018B01040F151FEB015E01AE18BF08A2
:10073000C017D10759F06991D601ED91FC91019054
:10074000F081E02DC6010995892B79F7C501DF916C
:10075000CF911F910F91FF90EF90DF90CF90BF90BE
:10076000AF900895FC01538D448D252F30E0842FE8
:1007700090E0821B930B541710F0CF9608950197C9
:100780000895FC01918D828D981761F0A28DAE0FB6
:10079000BF2FB11D5D968C91928D9F5F9F73928F3D
:1007A00090E008958FEF9FEF0895FC01918D828D69
:1007B000981731F0828DE80FF11D858D90E0089536
:1007C0008FEF9FEF08952FB7F8948091E6019091F5
:1007D000E701A091E801B091E9012FBF8093FA01F0
:1007E0009093FB01A093FC01B093FD0182EF91E097
:1007F0000E94D50397FF26C02FB7F8948091E60199
:100800009091E701A091E801B091E9012FBF4091DB
:10081000FA015091FB016091FC017091FD01841B74
:10082000950BA60BB70B4091F6015091F701609123
:10083000F8017091F90184179507A607B707B0F280
:100840008FEF9FEF0895CF92DF92EF92FF92CF93B9
:100850000E94E303FC0197FD4EC08D32910521F00B
:10086000C0970A9708F040C0C12CD12C7601C0E097
:10087000E130F105D1F0ED32F105D9F1CF01C097AA
:100880000A9798F4AAE0B0E0A70196010E94480EEA
:100890006F01FF0FEE08FF08C60ED71EE81EF91EF7
:1008A00080E3C81AD108E108F10882EF91E00E94C4
:1008B000C1030E94E303FC01C0970A97C8F2E1302C
:1008C000F105B1F2CC2341F0F094E094D094C094BF
:1008D000C11CD11CE11CF11CC701B601CF91FF90D6
:1008E000EF90DF90CF90089582EF91E00E94C103D6
:1008F000AFCFC1E0DACFC12CD12C7601EDCFFC0116
:10090000918D228D892F90E0805C9F4F821B9109F1
:100910008F739927089582EF91E00E947F0421E070
:10092000892B09F420E0822F089580E090E0892B44
:1009300029F00E948B0481110C9400000895FC01A1
:10094000A48DA80FB92FB11DA35ABF4F2C91848D30
:1009500090E001968F739927848FA689B7892C938D
:10096000A089B1898C91837080648C93938D848DE0
:10097000981306C00288F389E02D80818F7D8083E3
:100980000895EF92FF920F931F93CF93DF93EC01A3
:1009900081E0888F9B8D8C8D98131AC0E889F98926
:1009A000808185FF15C09FB7F894EE89FF89608329
:1009B000E889F98980818370806480839FBF81E0AA
:1009C00090E0DF91CF911F910F91FF90EF900895EC
:1009D000F62E0B8D10E00F5F1F4F0F731127E02EC7
:1009E0008C8D8E110CC00FB607FCFACFE889F989FF
:1009F000808185FFF5CFCE010E949F04F1CFEB8D62
:100A0000EC0FFD2FF11DE35AFF4FF0829FB7F894D2
:100A10000B8FEA89FB8980818062CFCF682F82EFBC
:100A200091E00C94C1040F931F93CF93DF938C013B
:100A3000D0E0C0E0F801EC0FFD1F6491662341F0A7
:100A400082EF91E00E94C104892B11F02196F2CF30
:100A5000CE01DF91CF911F910F910895CF93DF9336
:100A6000EC01888D8823B9F0AA89BB89E889F989C6
:100A70008C9185FD03C0808186FD0DC00FB607FCFB
:100A8000F7CF8C9185FFF2CF808185FFEDCFCE012E
:100A90000E949F04E9CFDF91CF910895CF93DF9318
:100AA000D82FC62F60E08AE00E94B102DEBD0DB4EF
:100AB00007FEFDCF8EB5CEBD0DB407FEFDCFCEB582
:100AC00061E08AE00E94B1028C2FDF91CF910895FE
:100AD000CF93DF93C9E0D1E08881882331F0698129
:100AE00080680E944E052296F7CFDF91CF9108953E
:100AF00060E00C944E05CF92DF92EF92FF921F932D
:100B0000CF93DF93162FEA018093EE0120E1629FDD
:100B1000C0011124862794E0899F90011124822727
:100B2000807C8093EF0161E08AE00E94B10261E085
:100B30008AE00E94FD0261E08AE00E94FD0261E01D
:100B40008BE00E94FD0260E08CE00E94FD0261E00B
:100B50008DE00E94FD0280E58CBD8DB581608DBD6C
:100B60006AEA8FEA0E944E058FE20E9478058A3A6F
:100B7000B9F765E58FEA0E944E058FE20E9478057D
:100B80008535B9F70E9468050E946805BE01DD0F32
:100B9000880B990BAAE0B0E09B01AC010E94480EC3
:100BA000611521EE720725EF820725E0920790F389
:100BB00022E0660F771F881F991F2A95D1F729E039
:100BC0003DE340E050E00E94620E69017A01CA01F3
:100BD000B9013AE096958795779567953A95D1F75B
:100BE00087E80E944E05C701B60142E096958795B9
:100BF000779567954A95D1F788E80E944E056C2D48
:100C00006295660F660F607C89E80E944E05612F31
:100C100080EBDF91CF911F91FF90EF90DF90CF900D
:100C20000C944E05CF93C82F8093F10181E00E9470
:100C30007805837E682F6C2B81E80E944E0587E241
:100C40000E94780587FFFBCFCF9108951F93CF9324
:100C5000DF93EC01FE011491112351F01A3019F4C5
:100C60008DE00E940E05812F0E940E052196F2CF85
:100C7000DF91CF911F91089561E089E00E94B10258
:100C800064E170E080E090E00E94530360E089E05E
:100C90000E94B1026CE370E080E090E00E94530398
:100CA00061E089E00E94B10264E170E080E090E0E0
:100CB0000E94530360E089E00C94B102EF92FF922E
:100CC0000F931F93CF93DF937C018C01C3E0D0E09F
:100CD000CE010E94320EF80181938F012196C73018
:100CE000D105B1F7C701DF91CF911F910F91FF900F
:100CF000EF9008950F931F93CF93DF9300D000D010
:100D0000CDB7DEB78C0190E080E00E94320E8F34C8
:100D1000D1F481E090E00E94320E8534A1F482E0AB
:100D200090E00E94320E8D3471F481E001151105BE
:100D300059F0CE0101960E945E0681E02B813C8134
:100D40002017310709F080E00F900F900F900F905F
:100D5000DF91CF911F910F910895FC010190002028
:100D6000E9F73197AF01481B590BBC0182EF91E0C5
:100D70000C9485038F929F92AF92BF920F931F9313
:100D8000CF93DF93CDB7DEB7A1970FB6F894DEBF50
:100D90000FBECDBF19A2423008F44AE08E010F5DAC
:100DA0001F4F842E912CB12CA12CA50194010E94DF
:100DB000620EE62FB901CA01EA30F4F4E05DD80111
:100DC000EE938D01232B242B252B79F790E080E0E7
:100DD000109719F0CD010E94AD06A1960FB6F894B8
:100DE000DEBF0FBECDBFDF91CF911F910F91BF909E
:100DF000AF909F908F900895E95CE1CF86E491E0F9
:100E00000C94AD06CF93DF930E941305EC010E9472
:100E1000FE068C0F9D1FDF91CF910895CF93DF9336
:100E2000682F70E090E080E04AE00E94BA06EC0192
:100E30000E94FE068C0F9D1FDF91CF910895CF92E7
:100E4000DF92EF92FF92CF93DF936C01990FEE0840
:100E5000FF08F7FE17C08DE20E940E05EC01662721
:100E60007727CB016C197D098E099F094AE00E9402
:100E7000BA068C0F9D1FDF91CF91FF90EF90DF900E
:100E8000CF9008954AE0C701B601DF91CF91FF905E
:100E9000EF90DF90CF900C94BA06CF92DF92EF9252
:100EA000FF920F931F93CF93DF938C017B018AE016
:100EB00095E00E941305D0E0C0E0CE15DF058CF56B
:100EC0006801CC0EDD1EC6010E94320E803118F47E
:100ED00080E30E940E052196C6010E94320E682F03
:100EE00070E090E080E040E10E94BA0689E491E081
:100EF0000E94AD06CE0187709927892B21F489E4E1
:100F000091E00E94AD06CE018F709927892BA9F63A
:100F100088E095E00E94130586E095E00E941305A5
:100F2000CCCFDF91CF911F910F91FF90EF90DF9089
:100F3000CF900895FF920F931F93CF93DF93EC010F
:100F4000F62E08811981C8010E94320EF81621F090
:100F50006F2DC8010E943A0ECE01DF91CF911F91F3
:100F60000F91FF900895CF92DF92EF92FF920F932F
:100F70001F93CF93DF9300D0CDB7DEB76C017C0118
:100F800003E010E01A830983F70161917F01CE012C
:100F900001960E949A070F5F1F4F0730110591F7C6
:100FA000C6010F900F90DF91CF911F910F91FF908D
:100FB000EF90DF90CF9008951F920F920FB60F928F
:100FC00011242F933F938F939F93AF93BF9380915F
:100FD000E6019091E701A091E801B091E90130911B
:100FE000E10123E0230F2D3758F50196A11DB11D16
:100FF0002093E1018093E6019093E701A093E8013B
:10100000B093E9018091E2019091E301A091E401A4
:10101000B091E5010196A11DB11D8093E20190936D
:10102000E301A093E401B093E501BF91AF919F91DB
:101030008F913F912F910F900FBE0F901F90189599
:1010400026E8230F0296A11DB11DD2CF1F920F9249
:101050000FB60F9211242F933F934F935F936F938B
:101060007F938F939F93AF93BF93EF93FF9382EF01
:1010700091E00E949F04FF91EF91BF91AF919F91EA
:101080008F917F916F915F914F913F912F910F9031
:101090000FBE0F901F9018951F920F920FB60F92D0
:1010A00011242F938F939F93EF93FF93E09102026C
:1010B000F09103028081E0910802F091090282FD23
:1010C0001BC0908180910B028F5F8F7320910C0267
:1010D000821741F0E0910B02F0E0EE50FE4F958F49
:1010E00080930B02FF91EF919F918F912F910F9021
:1010F0000FBE0F901F9018958081F4CFEF92FF9252
:101100000F931F93CF93DF9300D0CDB7DEB710922C
:10111000F5011092F40188EE93E0A0E0B0E0809336
:10112000F6019093F701A093F801B093F90188E3D9
:1011300091E09093F3018093F20185EC90E090931D
:10114000FF018093FE0184EC90E090930102809374
:10115000000280EC90E0909303028093020281EC05
:1011600090E0909305028093040282EC90E09093CB
:1011700007028093060286EC90E090930902809328
:10118000080210920B0210920C0210920D021092A3
:101190000E028EEF90E0909396028093950285E187
:1011A00090E0909392028093910284E290E0909379
:1011B000900280938F028BE091E09093980280934D
:1011C00097028FEF93E090939A0280939902109286
:1011D0009402109293020BE011E0C8010E94320EBB
:1011E000780195E1E90EF11C8F3F69F110939402AB
:1011F000009393028FEFE81683E0F80654F5C701D9
:101200000E94320E8F3FD9F00BE011E080919902DD
:1012100090919A0208171907E4F41A8309836FEF73
:10122000CE0101960E949A071092940210929302A6
:101230008091910290919202080F191FE7CF95E1DA
:10124000E90EF11CD7CF87018FEFE81683E0F8068F
:1012500021F60F900F90DF91CF911F910F91FF908A
:10126000EF900895CF93DF9300D000D000D0CDB79A
:10127000DEB7789484B5826084BD84B5816084BD16
:1012800085B5826085BD85B5816085BD80916E0024
:10129000816080936E001092810080918100826055
:1012A0008093810080918100816080938100809192
:1012B00080008160809380008091B1008460809381
:1012C000B1008091B00081608093B00080917A007D
:1012D000846080937A0080917A00826080937A00A3
:1012E00080917A00816080937A0080917A00806892
:1012F00080937A001092C10061E089E00E94FD02B3
:1013000061E089E00E94B102E0910202F0910302E3
:1013100082E08083E091FE01F091FF011082E09174
:101320000002F091010283E3808310920A02E091AF
:101330000602F091070286E08083E0910402F091BA
:101340000502808180618083E0910402F0910502B2
:10135000808188608083E0910402F09105028081A1
:1013600080688083E0910402F091050280818F7D86
:1013700080838FE790E00E9413058BE491E00E9448
:10138000AD0688E690E00E94020787E190E00E94A7
:101390007A068823E9F0CE0101960E945E06098153
:1013A0001A8117FD15C00D5F1F4FF0E0CF2EF1E041
:1013B000DF2EA7E0EA2EF12CC7010E94320EF601C3
:1013C00081936F01FFEFEF1AFF0AE016F106A0F319
:1013D00060ED77E080E090E00E945303809100018F
:1013E00043E953E0833031F042EB51E0823011F4B5
:1013F00044E653E060910201809103010E947B0565
:1014000060E089E00E94B10269E0462E512CEE2492
:10141000E394F12CE2E0CE2ED12C7724739450E0AB
:10142000252E50E0352E8091F101803109F443C022
:1014300080E10E9412068091040180FF0EC110918C
:101440009E01112309F409C18EEA94E00E94260648
:10145000612F70E090E080E04AE00E94BA068AEADC
:1014600094E00E94260690909E01092D10E080E0F5
:101470000E94120662E0690D80E80E944E056091AC
:10148000EF0180E80E944E056091EE0180E80E9425
:101490004E059CE5892E91E0992EC4018C55914012
:1014A000801791070CF0BEC0F40161914F0180E8F4
:1014B0000E944E05F2CF87E20E9478059091540178
:1014C0008074891751F180E4892780935401903406
:1014D00021F188E10E94780590E043E09595879599
:1014E0004A95E1F787708093ED0184E20E947805C8
:1014F0008093EC018FE10E9478051092EA018093BD
:10150000EB0180E20E9478052091EA013091EB0125
:10151000282B3093EB012093EA0188E20E947805A2
:1015200082FF89CF80E00E947805682E882E912C5A
:1015300010E000E0081519056CF480E00E947805C1
:101540000234110524F4F801E156FE4F80830F5F49
:101550001F4FF0CF84E20E9478058093EC019091B8
:101560009F01392F307C2091EF01321364CF9F739C
:101570002091EE01921729F0992319F02F3309F0E9
:101580005ACF22E0821691040CF455CF70920801D4
:10159000609206011091A0011093050190E09595CD
:1015A00087959195819591098093070183EB94E04C
:1015B0000E94130583E990E00E941305612F70E0FB
:1015C00090E080E04AE00E94BA0681E990E00E9443
:1015D000130501EA11E032E0932E691479F0F80165
:1015E00061918F0170E090E080E04AE00E94BA06CD
:1015F0008FE890E00E9413059394EFCF8DE890E080
:101600000E94130580910701082E000C990B0E947F
:101610001F078BE890E00E9413050E94FE060E94BF
:101620003C0609CF8CE00E94120688E20E947805F1
:1016300083FFFBCF84E00E94120610929E0161E0BE
:1016400089E00E94B1026EE170E080E090E00E94CB
:10165000530360E089E00E94B10282EF91E00E94B2
:101660007F04892B09F4F2C282EF91E00E947F048B
:10167000892B09F4D1C282EF91E00E94D503182F83
:1016800080ED810F8A3000F5709259012FB7F894E0
:101690008091E6019091E701A091E801B091E90104
:1016A0002FBF8093550190935601A0935701B0939B
:1016B000580182EF91E00E947F04892B19F182EF9B
:1016C00091E00E94C103F5CF2FB7F8948091E60115
:1016D0009091E701A091E801B091E9012FBF4091FD
:1016E0005501509156016091570170915801841B2A
:1016F000950BA60BB70B813D9740A105B10510F0E6
:10170000109259018091590181110EC0193609F4C6
:10171000A0C1CCF5143509F443C294F41F3309F485
:1017200074C21C3409F44EC182EF91E00E947F0420
:10173000892B09F471C282EF91E00E94C103F4CFBA
:10174000123609F4FDC0173609F42BC1163561F7BE
:101750000E9423044B015C0181E081149104A104E7
:10176000B10409F480E080935A0184E594E00E947A
:1017700013058DE494E089288A288B2809F4D4C1C4
:1017800081E594E0D1C1123709F492C10CF059C03F
:101790001E3609F45EC1103709F472C11C3621F6F9
:1017A0008CEA91E00E94130589EA91E00E941305FA
:1017B0006091040170E090E080E04AE00E94BA0687
:1017C00086EA91E00E94130580910001813021F4A6
:1017D00084EA91E00E94130580910001823021F497
:1017E00082EA91E00E94130580910001833021F488
:1017F00080EA91E00E9413058DE991E00E941305B3
:101800006091010170E090E080E04AE00E94BA0639
:101810008AE991E00E9413056091020170E090E076
:1018200080E04AE00E94BA0687E991E00E94130531
:101830006091030170E090E080E04AE00E94BA0607
:1018400073CF163709F4C8C1173709F4CEC113375F
:1018500009F06ACF87E190E00E947A06811124C0E6
:101860001A8219826FE4CE0101960E949A07FA82C9
:10187000E98265E4CE0101960E949A07DA82C98264
:101880006DE4CE0101960E949A0703E010E01A83EE
:1018900009836FEFCE0101960E949A070F5F1F4FD9
:1018A000011524E0120799F75A82498287E190E0F6
:1018B0009C838B83CE0101960E94B30700E011E068
:1018C00087E0882E912CF80161918F019E828D8294
:1018D000CE0105960E949A07FFEF8F1A9F0A2CE00F
:1018E0008216910481F780915A01882309F41CCF54
:1018F00090E080E00E947A06811104C18CE491E0BE
:101900000E94130585E491E00E9413054AE060E01F
:1019100074E080E090E00E94BA068FE191E00E94BE
:10192000020760E074E090E080E00E944D078DE1E6
:1019300091E00E9413058BE191E00E941305F2C033
:101940000E94230481E0643039F082E0683021F0A5
:1019500080E0693009F483E08093000180915A01AE
:101960008823E1F08EE994E00E9413058091000144
:10197000813021F487E994E00E9402078091000100
:10198000823021F480E994E00E94020780910001F6
:10199000833021F489E894E00E94020770925B0191
:1019A000C3CE0E9423046093020180915A018823D0
:1019B000A9F381E894E00E941305809102010E943E
:1019C0000E07ECCF81E092E00E94020788EF91E0E1
:1019D0000E941305809104010E940E078DEE91E094
:1019E0000E94130580910001813021F486EE91E080
:1019F0000E94020780910001823021F48FED91E076
:101A00000E94020780910001833021F488ED91E06B
:101A10000E9402078FEC91E00E9413058091010162
:101A20008251990B0E941F078AEC91E00E940207E5
:101A300081EC91E00E941305809102010E940E0743
:101A400086EB91E00E941305809103010E940E072E
:101A50006BCE0E942304662389F0603408F06FE3A4
:101A60006093030180915A01882309F497CF8AE794
:101A700094E00E94130580910301A1CF61E0F0CFB3
:101A80000E9423046F716093010180915A018823A1
:101A900009F484CF85E794E00E9413058091010149
:101AA0008F718251990B0E941F0780E794E074CFD9
:101AB00080915A01882321F089E891E00E94130562
:101AC00087E190E00E947A06882389F0CE01019692
:101AD0000E945E0689819A8197FD09C09195819542
:101AE00091099A838983CE0101960E94B307809160
:101AF0005A01882321F081E691E00E9402070C94AC
:101B0000000012CECE0101960E945E068B819C8160
:101B1000019669F489E191E00E94130588EC90E058
:101B20000E9402078EE491E00E940207FDCD86EC40
:101B300090E00E94130589EB90E00E9413056B81F1
:101B40007C8190E080E04AE00E94BA0609811A8117
:101B500017FF03C0119501951109045011098BEA73
:101B600090E00E941305C8010E941F0784EA90E0DC
:101B70000E94130589819A8197FF04C089E990E04A
:101B80000E9413050E94FE06B80187E090E00E94C3
:101B90004D0787E990E00E94130585E990E0CDCEDE
:101BA00082EF91E00E94C1030CE511E0912C82EFDD
:101BB00091E00E94C10390EE980F9F3528F4F80140
:101BC000808393940F5F1F4F8A3019F0F2E49F12C5
:101BD000EECF90929E01A8CD83E694E00E9413057B
:101BE0008BE491E00E94AD069FCD0E942304609398
:101BF000040180915A01882309F496CD85E494E08C
:101C00000E9413058091040121CF8BE092E00E9495
:101C100026060E94FE0688CD0E943C0680915B014C
:101C20008823A1F08091000143E953E0833031F033
:101C300042EB51E0823011F444E653E0609102013E
:101C4000809103010E947B0510925B0121143104F5
:101C500009F4E9CB0E948B04882309F4DECB0E94AF
:101C60000000DBCBF999FECF92BD81BDF89A992790
:101C700080B50895262FF999FECF1FBA92BD81BD78
:101C800020BD0FB6F894FA9AF99A0FBE01960895FE
:101C90000E94530EA59F900DB49F900DA49F800DA0
:101CA000911D11240895A29FB001B39FC001A39F6D
:101CB000700D811D1124911DB29F700D811D112485
:101CC000911D0895A1E21A2EAA1BBB1BFD010DC098
:101CD000AA1FBB1FEE1FFF1FA217B307E407F507DC
:101CE00020F0A21BB30BE40BF50B661F771F881FB8
:101CF000991F1A9469F760957095809590959B014E
:101D0000AC01BD01CF010895EE0FFF1F0590F491C6
:081D1000E02D0994F894FFCFC7
:101D18000119D205010000810002000302048A05AE
:101D28000206E10B201199194A1A421E0C260729AE
:101D3800A02D052E882F2D37D038423C8F3D126FAD
:101D48002071020000000000C1048503B2032E05C3
:101D58007F04C103D5030D0A002000322E302E3037
:041D68000A0D000060
:00000001FF
